:020000040000FA
:1000000002EF00F017EEFFF027EEFFF0F86AA68E81
:10001000A69CE9680E0EEA6E0068ED6A0050FDE1EC
:10002000EE0EF66E000EF76E000EF86E0900F5CFBC
:1000300005F00900F5CF06F034D00900F5CF00F047
:100040000900F5CF01F00900F5CF02F00900090021
:10005000F5CFE9FF0900F5CFEAFF09000900090023
:10006000F5CF03F00900F5CF04F009000900F6CF41
:1000700007F0F7CF08F0F8CF09F000C0F6FF01C095
:10008000F7FF02C0F8FF03D00900F5CFEEFF03062B
:10009000FBE20406F9E207C0F6FF08C0F7FF09C05B
:1000A000F8FF0506CAE20606C8E258EC00F0FFD7E2
:1000B000700ED36E946A0F015D6B8B1E0001606B36
:1000C0000001616B00016151800F320F03E1200ECE
:1000D0000001605DF2E20001623F02D00001632B8B
:1000E0000001603F02D00001612BECD7120001003B
:0E00F000FC00000064000000010000000000A1
:020000040030CA
:0100010028D6
:010003003CC0
:010006008574
:00000001FF
